{
  "_format": "hh-sol-artifact-1",
  "contractName": "Holographic",
  "sourceName": "contracts/Holographic.sol",
  "abi": [
    {
      "inputs": [],
      "stateMutability": "nonpayable",
      "type": "constructor"
    },
    {
      "stateMutability": "payable",
      "type": "fallback"
    },
    {
      "inputs": [
        {
          "internalType": "address",
          "name": "nonTestatorAddr",
          "type": "address"
        },
        {
          "internalType": "string",
          "name": "name",
          "type": "string"
        },
        {
          "internalType": "uint256",
          "name": "_userType",
          "type": "uint256"
        }
      ],
      "name": "addNonTestator",
      "outputs": [],
      "stateMutability": "nonpayable",
      "type": "function"
    },
    {
      "inputs": [
        {
          "internalType": "address",
          "name": "testatorAddr",
          "type": "address"
        }
      ],
      "name": "declareDeath",
      "outputs": [],
      "stateMutability": "nonpayable",
      "type": "function"
    },
    {
      "inputs": [
        {
          "internalType": "address",
          "name": "nonTestatorAddr",
          "type": "address"
        }
      ],
      "name": "deleteNonTestator",
      "outputs": [],
      "stateMutability": "nonpayable",
      "type": "function"
    },
    {
      "inputs": [
        {
          "internalType": "address",
          "name": "apocalypse",
          "type": "address"
        }
      ],
      "name": "destroy",
      "outputs": [],
      "stateMutability": "nonpayable",
      "type": "function"
    },
    {
      "inputs": [
        {
          "internalType": "address",
          "name": "testatorAddr",
          "type": "address"
        }
      ],
      "name": "getAllNonTestators",
      "outputs": [
        {
          "components": [
            {
              "internalType": "address",
              "name": "addr",
              "type": "address"
            },
            {
              "internalType": "string",
              "name": "name",
              "type": "string"
            },
            {
              "internalType": "string",
              "name": "password",
              "type": "string"
            },
            {
              "internalType": "bool",
              "name": "isLoggedIn",
              "type": "bool"
            },
            {
              "internalType": "bool",
              "name": "hasSigned",
              "type": "bool"
            },
            {
              "internalType": "uint256",
              "name": "id",
              "type": "uint256"
            },
            {
              "internalType": "address",
              "name": "testatorAddr",
              "type": "address"
            },
            {
              "internalType": "enum Holographic.NonTestatorType",
              "name": "userType",
              "type": "uint8"
            }
          ],
          "internalType": "struct Holographic.NonTestator[]",
          "name": "",
          "type": "tuple[]"
        }
      ],
      "stateMutability": "view",
      "type": "function"
    },
    {
      "inputs": [
        {
          "internalType": "address",
          "name": "testatorAddr",
          "type": "address"
        },
        {
          "internalType": "address",
          "name": "nonTestatorAddr",
          "type": "address"
        }
      ],
      "name": "getnonTestator",
      "outputs": [
        {
          "components": [
            {
              "internalType": "address",
              "name": "addr",
              "type": "address"
            },
            {
              "internalType": "string",
              "name": "name",
              "type": "string"
            },
            {
              "internalType": "string",
              "name": "password",
              "type": "string"
            },
            {
              "internalType": "bool",
              "name": "isLoggedIn",
              "type": "bool"
            },
            {
              "internalType": "bool",
              "name": "hasSigned",
              "type": "bool"
            },
            {
              "internalType": "uint256",
              "name": "id",
              "type": "uint256"
            },
            {
              "internalType": "address",
              "name": "testatorAddr",
              "type": "address"
            },
            {
              "internalType": "enum Holographic.NonTestatorType",
              "name": "userType",
              "type": "uint8"
            }
          ],
          "internalType": "struct Holographic.NonTestator",
          "name": "",
          "type": "tuple"
        }
      ],
      "stateMutability": "view",
      "type": "function"
    },
    {
      "inputs": [
        {
          "internalType": "address",
          "name": "testatorAddr",
          "type": "address"
        },
        {
          "internalType": "string",
          "name": "_password",
          "type": "string"
        }
      ],
      "name": "loginAsNonTestator",
      "outputs": [
        {
          "internalType": "bool",
          "name": "",
          "type": "bool"
        }
      ],
      "stateMutability": "nonpayable",
      "type": "function"
    },
    {
      "inputs": [
        {
          "internalType": "string",
          "name": "_password",
          "type": "string"
        }
      ],
      "name": "loginAsTestator",
      "outputs": [
        {
          "internalType": "bool",
          "name": "",
          "type": "bool"
        }
      ],
      "stateMutability": "nonpayable",
      "type": "function"
    },
    {
      "inputs": [
        {
          "internalType": "address",
          "name": "testatorAddr",
          "type": "address"
        }
      ],
      "name": "logoutNonTestator",
      "outputs": [],
      "stateMutability": "nonpayable",
      "type": "function"
    },
    {
      "inputs": [],
      "name": "logoutTestator",
      "outputs": [],
      "stateMutability": "nonpayable",
      "type": "function"
    },
    {
      "inputs": [
        {
          "internalType": "string",
          "name": "_name",
          "type": "string"
        },
        {
          "internalType": "string",
          "name": "_password",
          "type": "string"
        }
      ],
      "name": "registerTestator",
      "outputs": [
        {
          "internalType": "uint256",
          "name": "",
          "type": "uint256"
        }
      ],
      "stateMutability": "nonpayable",
      "type": "function"
    },
    {
      "inputs": [
        {
          "internalType": "address",
          "name": "testatorAddr",
          "type": "address"
        }
      ],
      "name": "revealWillIPFSCID",
      "outputs": [
        {
          "internalType": "string",
          "name": "",
          "type": "string"
        }
      ],
      "stateMutability": "view",
      "type": "function"
    },
    {
      "inputs": [
        {
          "internalType": "address",
          "name": "testatorAddr",
          "type": "address"
        }
      ],
      "name": "signWill",
      "outputs": [],
      "stateMutability": "nonpayable",
      "type": "function"
    },
    {
      "inputs": [
        {
          "internalType": "address",
          "name": "testatorAddr",
          "type": "address"
        },
        {
          "internalType": "string",
          "name": "_name",
          "type": "string"
        },
        {
          "internalType": "string",
          "name": "_password",
          "type": "string"
        }
      ],
      "name": "signupAsNonTestator",
      "outputs": [
        {
          "internalType": "bool",
          "name": "",
          "type": "bool"
        }
      ],
      "stateMutability": "nonpayable",
      "type": "function"
    },
    {
      "inputs": [
        {
          "internalType": "string",
          "name": "ipfsCID",
          "type": "string"
        }
      ],
      "name": "uploadWillIPFSCID",
      "outputs": [],
      "stateMutability": "nonpayable",
      "type": "function"
    },
    {
      "inputs": [
        {
          "internalType": "address",
          "name": "testatorAddr",
          "type": "address"
        }
      ],
      "name": "viewTestator",
      "outputs": [
        {
          "components": [
            {
              "internalType": "address",
              "name": "addr",
              "type": "address"
            },
            {
              "internalType": "string",
              "name": "name",
              "type": "string"
            },
            {
              "internalType": "string",
              "name": "password",
              "type": "string"
            },
            {
              "internalType": "bool",
              "name": "isLoggedIn",
              "type": "bool"
            },
            {
              "internalType": "bool",
              "name": "testatorAlive",
              "type": "bool"
            },
            {
              "internalType": "bool",
              "name": "allNonTestatorsSigned",
              "type": "bool"
            },
            {
              "internalType": "string",
              "name": "willIPFSCID",
              "type": "string"
            },
            {
              "internalType": "uint256",
              "name": "id",
              "type": "uint256"
            },
            {
              "internalType": "uint256[]",
              "name": "nonTestatorsIds",
              "type": "uint256[]"
            }
          ],
          "internalType": "struct Holographic.Testator",
          "name": "",
          "type": "tuple"
        }
      ],
      "stateMutability": "view",
      "type": "function"
    }
  ],
  "bytecode": "0x60806040523480156200001157600080fd5b50620000416040518060600160405280602481526020016200398e602491396200005960201b62002ce71760201c565b600080546001600160a01b0319163317905562000118565b620000a481604051602401620000709190620000c8565b60408051601f198184030181529190526020810180516001600160e01b0390811663104c13eb60e21b17909152620000a716565b50565b80516a636f6e736f6c652e6c6f67602083016000808483855afa5050505050565b600060208083528351808285015260005b81811015620000f757858101830151858201604001528201620000d9565b506000604082860101526040601f19601f8301168501019250505092915050565b61386680620001286000396000f3fe6080604052600436106100e85760003560e01c8063762bdcea11610084578063ae4ac7a211610056578063ae4ac7a2146102ab578063b13a7145146102c0578063ecb942e8146102ed578063f8e67c8a1461030d57005b8063762bdcea1461021d5780637d6378721461024b578063996fd42b1461026b5780639d85c1571461028b57005b806349f51479116100bd57806349f51479146101805780634d8c7e10146101ad5780634df5d72a146101dd578063509bd651146101fd57005b8062c9480f146100ea578062f55d9d1461010a5780630fec7c721461012a5780631d5559b51461014a575b005b3480156100f657600080fd5b506100e8610105366004612fbf565b61033a565b34801561011657600080fd5b506100e8610125366004613016565b61066f565b34801561013657600080fd5b506100e8610145366004613016565b61071b565b34801561015657600080fd5b5061016a610165366004613016565b6109db565b60405161017791906130c3565b60405180910390f35b34801561018c57600080fd5b506101a061019b36600461319d565b610de7565b60405161017791906132ad565b3480156101b957600080fd5b506101cd6101c83660046132c0565b611147565b6040519015158152602001610177565b3480156101e957600080fd5b506100e86101f8366004613016565b61129b565b34801561020957600080fd5b506100e8610218366004613016565b6114b8565b34801561022957600080fd5b5061023d6102383660046132fd565b6116f4565b604051908152602001610177565b34801561025757600080fd5b506101cd610266366004613361565b6118cf565b34801561027757600080fd5b506100e8610286366004613016565b611b9e565b34801561029757600080fd5b506100e86102a63660046132c0565b612206565b3480156102b757600080fd5b506100e861235b565b3480156102cc57600080fd5b506102e06102db366004613016565b6124b7565b60405161017791906133a5565b3480156102f957600080fd5b506101cd6103083660046133b8565b612860565b34801561031957600080fd5b5061032d610328366004613016565b6129b7565b604051610177919061342c565b336000908152600d602052604090205460018054909190811061035f5761035f61348e565b60009182526020909120600790910201546001600160a01b031633146103d05760405162461bcd60e51b815260206004820152602d602482015260008051602061381183398151915260448201526c37ba1030903a32b9ba30ba37b960991b60648201526084015b60405180910390fd5b336000908152600d60205260409020546001805490919081106103f5576103f561348e565b600091825260209091206003600790920201015460ff1615156001146104525760405162461bcd60e51b81526020600482015260126024820152712ab9b2b9103737ba103637b3b3b2b21034b760711b60448201526064016103c7565b336000908152600d60205260408120546001805490919081106104775761047761348e565b6000918252602080832060066007909302019190910154338352600d909152604090912054600180549293509181106104b2576104b261348e565b60009182526020808320600660079093020191909101805460018181018355918452828420018490556001600160a01b038716808452600b8352604080852086905533808652600c85528186208251610100810184529384528386018a9052825195860183528686529183019490945260608201859052608082019490945260a0810185905260c081019290925260e08201908590811115610556576105566131d0565b6001811115610567576105676131d0565b90528154600180820184556000938452602093849020835160069093020180546001600160a01b0319166001600160a01b039093169290921782559282015191929091908201906105b89082613527565b50604082015160028201906105cd9082613527565b506060820151600382018054608085015115156101000261ff00199315159390931661ffff199091161791909117905560a0820151600482015560c08201516005820180546001600160a01b039092166001600160a01b031983168117825560e08501519274ffffffffffffffffffffffffffffffffffffffffff191617600160a01b836001811115610662576106626131d0565b0217905550505050505050565b6000546001600160a01b031633146106ef5760405162461bcd60e51b815260206004820152602660248201527f4f6e6c7920746865206f776e65722063616e2063616c6c20746869732066756e60448201527f6374696f6e2e000000000000000000000000000000000000000000000000000060648201526084016103c7565b6001600160a01b0381161561070a57806001600160a01b0316ff5b6000546001600160a01b0316ff5b50565b6001600160a01b0381166000908152600d60205260409020546001805483929081106107495761074961348e565b6000918252602090912060079091020160030154610100900460ff16156107d85760405162461bcd60e51b815260206004820152602b60248201527f5465737461746f722069732064656365617365642c2063616e6e6f742073696760448201527f6e207468652077696c6c2e00000000000000000000000000000000000000000060648201526084016103c7565b6001600160a01b0382166000908152600c6020908152604080832033808552600b90935292205482548593919081106108135761081361348e565b60009182526020909120600690910201546001600160a01b031614801561089d57506001600160a01b0381166000908152600c60209081526040808320338452600b9092528220548154811061086b5761086b61348e565b906000526020600020906006020160050160149054906101000a900460ff16600181111561089b5761089b6131d0565b145b6108de5760405162461bcd60e51b81526020600482015260126024820152712ab9b2b9103737ba103637b3b3b2b21034b760711b60448201526064016103c7565b6001600160a01b0381166000908152600c60209081526040808320338452600b90925290912054815481106109155761091561348e565b600091825260209091206003600690920201015460ff1615156001146109725760405162461bcd60e51b81526020600482015260126024820152712ab9b2b9103737ba103637b3b3b2b21034b760711b60448201526064016103c7565b6001600160a01b0383166000908152600c60209081526040808320338452600b909252909120548154600192919081106109ae576109ae61348e565b906000526020600020906006020160030160016101000a81548160ff021916908315150217905550505050565b604080516101208101825260008082526060602083018190529282018390528282018190526080820181905260a0820181905260c0820183905260e0820152610100810191909152336000908152600d6020526040902054600180549091908110610a4857610a4861348e565b60009182526020909120600790910201546001600160a01b03163314610ab45760405162461bcd60e51b815260206004820152602d602482015260008051602061381183398151915260448201526c37ba1030903a32b9ba30ba37b960991b60648201526084016103c7565b336000908152600d6020526040902054600180549091908110610ad957610ad961348e565b600091825260209091206003600790920201015460ff161515600114610b365760405162461bcd60e51b81526020600482015260126024820152712ab9b2b9103737ba103637b3b3b2b21034b760711b60448201526064016103c7565b6001600160a01b0382166000908152600d6020526040902054600180549091908110610b6457610b6461348e565b600091825260209182902060408051610120810190915260079092020180546001600160a01b031682526001810180549293919291840191610ba5906134a4565b80601f0160208091040260200160405190810160405280929190818152602001828054610bd1906134a4565b8015610c1e5780601f10610bf357610100808354040283529160200191610c1e565b820191906000526020600020905b815481529060010190602001808311610c0157829003601f168201915b50505050508152602001600282018054610c37906134a4565b80601f0160208091040260200160405190810160405280929190818152602001828054610c63906134a4565b8015610cb05780601f10610c8557610100808354040283529160200191610cb0565b820191906000526020600020905b815481529060010190602001808311610c9357829003601f168201915b5050509183525050600382015460ff808216151560208401526101008204811615156040840152620100009091041615156060820152600482018054608090920191610cfb906134a4565b80601f0160208091040260200160405190810160405280929190818152602001828054610d27906134a4565b8015610d745780601f10610d4957610100808354040283529160200191610d74565b820191906000526020600020905b815481529060010190602001808311610d5757829003601f168201915b505050505081526020016005820154815260200160068201805480602002602001604051908101604052809291908181526020018280548015610dd657602002820191906000526020600020905b815481526020019060010190808311610dc2575b50505050508152505090505b919050565b610e2d604080516101008101825260008082526060602083018190529282018390529181018290526080810182905260a0810182905260c081018290529060e082015290565b336000908152600d6020526040902054600180549091908110610e5257610e5261348e565b60009182526020909120600790910201546001600160a01b03163314610ebe5760405162461bcd60e51b815260206004820152602d602482015260008051602061381183398151915260448201526c37ba1030903a32b9ba30ba37b960991b60648201526084016103c7565b336000908152600d6020526040902054600180549091908110610ee357610ee361348e565b600091825260209091206003600790920201015460ff161515600114610f405760405162461bcd60e51b81526020600482015260126024820152712ab9b2b9103737ba103637b3b3b2b21034b760711b60448201526064016103c7565b6001600160a01b038084166000908152600c602090815260408083209386168352600b90915290205481548110610f7957610f7961348e565b600091825260209182902060408051610100810190915260069092020180546001600160a01b031682526001810180549293919291840191610fba906134a4565b80601f0160208091040260200160405190810160405280929190818152602001828054610fe6906134a4565b80156110335780601f1061100857610100808354040283529160200191611033565b820191906000526020600020905b81548152906001019060200180831161101657829003601f168201915b5050505050815260200160028201805461104c906134a4565b80601f0160208091040260200160405190810160405280929190818152602001828054611078906134a4565b80156110c55780601f1061109a576101008083540402835291602001916110c5565b820191906000526020600020905b8154815290600101906020018083116110a857829003601f168201915b5050509183525050600382015460ff808216151560208401526101009091048116151560408301526004830154606083015260058301546001600160a01b038116608084015260a090920191600160a01b900416600181111561112a5761112a6131d0565b600181111561113b5761113b6131d0565b90525090505b92915050565b336000908152600d602052604081205460018054909190811061116c5761116c61348e565b60009182526020909120600790910201546001600160a01b031633146111d85760405162461bcd60e51b815260206004820152602d602482015260008051602061381183398151915260448201526c37ba1030903a32b9ba30ba37b960991b60648201526084016103c7565b81805190602001206001600d6000336001600160a01b03166001600160a01b0316815260200190815260200160002054815481106112185761121861348e565b9060005260206000209060070201600201604051611236919061365a565b60405180910390200361129357336000908152600d6020526040902054600180549091829181106112695761126961348e565b60009182526020909120600790910201600301805460ff1916911515919091179055506001919050565b506000919050565b6001600160a01b0381166000908152600c60209081526040808320338452600b9092529091205481548392919081106112d6576112d661348e565b60009182526020909120600690910201546001600160a01b031633146113425760405162461bcd60e51b815260206004820152602d602482015260008051602061381183398151915260448201526c37ba1030903a32b9ba30ba37b960991b60648201526084016103c7565b6001600160a01b0381166000908152600c60209081526040808320338452600b90925290912054815481106113795761137961348e565b600091825260209091206003600690920201015460ff1615156001146113d65760405162461bcd60e51b81526020600482015260126024820152712ab9b2b9103737ba103637b3b3b2b21034b760711b60448201526064016103c7565b336000908152600b60209081526040808320546001600160a01b0386168452600c90925290912080548290811061140f5761140f61348e565b600091825260209091206003600690920201015460ff166114675760405162461bcd60e51b81526020600482015260126024820152712ab9b2b9103737ba103637b3b3b2b21034b760711b60448201526064016103c7565b6001600160a01b0383166000908152600c602052604081208054839081106114915761149161348e565b60009182526020909120600690910201600301805460ff1916911515919091179055505050565b6001600160a01b0381166000908152600c6020908152604080832033808552600b90935292205482548493919081106114f3576114f361348e565b60009182526020909120600690910201546001600160a01b0316148015611580575060016001600160a01b0382166000908152600c60209081526040808320338452600b909252909120548154811061154e5761154e61348e565b906000526020600020906006020160050160149054906101000a900460ff16600181111561157e5761157e6131d0565b145b6116065760405162461bcd60e51b815260206004820152604b602482015260008051602061381183398151915260448201527f6f74206120646f63746f72206f72206e6f74206120726567697374657265642060648201527f6e6f6e5465737461746f72000000000000000000000000000000000000000000608482015260a4016103c7565b6001600160a01b0381166000908152600c60209081526040808320338452600b909252909120548154811061163d5761163d61348e565b600091825260209091206003600690920201015460ff16151560011461169a5760405162461bcd60e51b81526020600482015260126024820152712ab9b2b9103737ba103637b3b3b2b21034b760711b60448201526064016103c7565b6001600160a01b0382166000908152600d60205260408120546001805490919081106116c8576116c861348e565b906000526020600020906007020160030160016101000a81548160ff0219169083151502179055505050565b604080516101208101825233808252602080830186815283850186905260006060850181905260016080860181905260a086018290528651808501885282815260c0870152805460e087019081528751838152808601895261010088015251948252600d9093529485209290925580548082018255908452825160079091027fb10e2d527612073b26eecdfd717e6a320cf44b4afac2b0732d9fcbe2b7fa0cf6810180546001600160a01b039093166001600160a01b0319909316929092178255915183927fb10e2d527612073b26eecdfd717e6a320cf44b4afac2b0732d9fcbe2b7fa0cf701906117e69082613527565b50604082015160028201906117fb9082613527565b506060820151600382018054608085015160a08601511515620100000262ff0000199115156101000261ff00199515159590951661ffff1990931692909217939093179290921691909117905560c0820151600482019061185c9082613527565b5060e082015160058201556101008201518051611883916006840191602090910190612e6f565b5050506118c46040518060400160405280601381526020017f52656769737465722061206e6577205573657200000000000000000000000000815250612ce7565b60e001519392505050565b6001600160a01b0382166000908152600c60209081526040808320338452600b90925282205481548592919081106119095761190961348e565b60009182526020909120600690910201546001600160a01b031633146119755760405162461bcd60e51b815260206004820152602d602482015260008051602061381183398151915260448201526c37ba1030903a32b9ba30ba37b960991b60648201526084016103c7565b336000818152600b60209081526040808320546001600160a01b0389168452600c9092529091208054919291839081106119b1576119b161348e565b60009182526020909120600690910201546001600160a01b031614611a185760405162461bcd60e51b815260206004820152601360248201527f55736572206e6f7420726567697374657265640000000000000000000000000060448201526064016103c7565b6001600160a01b0385166000908152600c60205260409020805482908110611a4257611a4261348e565b600091825260209091206003600690920201015460ff1615611aa65760405162461bcd60e51b815260206004820152601660248201527f5573657220616c7265616479206c6f6767656420696e0000000000000000000060448201526064016103c7565b8333604051602001611ab9929190613666565b60408051601f1981840301815291815281516020928301206001600160a01b0388166000908152600c9093529120805483908110611af957611af961348e565b906000526020600020906006020160020133604051602001611b1c92919061369d565b6040516020818303038152906040528051906020012003611b91576001600160a01b0385166000908152600c6020526040902080546001919083908110611b6557611b6561348e565b60009182526020909120600690910201600301805460ff19169115159190911790555060019150611b97565b60009250505b5092915050565b336000908152600d6020526040902054600180549091908110611bc357611bc361348e565b60009182526020909120600790910201546001600160a01b03163314611c2f5760405162461bcd60e51b815260206004820152602d602482015260008051602061381183398151915260448201526c37ba1030903a32b9ba30ba37b960991b60648201526084016103c7565b336000908152600d6020526040902054600180549091908110611c5457611c5461348e565b600091825260209091206003600790920201015460ff161515600114611cb15760405162461bcd60e51b81526020600482015260126024820152712ab9b2b9103737ba103637b3b3b2b21034b760711b60448201526064016103c7565b336000908152600c602090815260408083206001600160a01b0385168452600b9092529091205481548110611ce857611ce861348e565b60009182526020909120600690910201546001600160a01b03828116911614611d535760405162461bcd60e51b815260206004820152601c60248201527f41646472657373206973206e6f742061206e6f6e5465737461746f720000000060448201526064016103c7565b6001600160a01b0381166000908152600b6020908152604080832054338452600d9092529091205460018054909182918110611d9157611d9161348e565b906000526020600020906007020160060180549050611db091906136e0565b81101561219257805b336000908152600d6020526040902054600180549091908110611dde57611dde61348e565b90600052602060002090600702016006018054905081101561208457336000908152600d6020526040902054600180549091908110611e1f57611e1f61348e565b9060005260206000209060070201600601826001611e3d91906136f3565b81548110611e4d57611e4d61348e565b90600052602060002001546001600d6000336001600160a01b03166001600160a01b031681526020019081526020016000205481548110611e9057611e9061348e565b90600052602060002090600702016006018381548110611eb257611eb261348e565b6000918252602080832090910192909255338152600c90915260409020611eda8360016136f3565b81548110611eea57611eea61348e565b9060005260206000209060060201600c6000336001600160a01b03166001600160a01b031681526020019081526020016000208381548110611f2e57611f2e61348e565b60009182526020909120825460069092020180546001600160a01b0319166001600160a01b03909216919091178155600180820190611f6f90840182613706565b50600281810190611f8290840182613706565b5060038281018054918301805460ff938416151560ff19821681178355925461010090819004851615150261ff001990931661ffff1990911617919091179055600480840154908301556005808401805491840180546001600160a01b031981166001600160a01b0390941693841782559154600160a01b9081900490941693909274ffffffffffffffffffffffffffffffffffffffffff1990921690911790836001811115612034576120346131d0565b021790555050336000908152600c6020526040902080548492508290811061205e5761205e61348e565b60009182526020909120600460069092020101558061207c816137e1565b915050611db9565b50336000908152600d60205260409020546001805490919081106120aa576120aa61348e565b90600052602060002090600702016006018054806120ca576120ca6137fa565b600082815260208082208301600019908101839055909201909255338252600c9052604090208054806120ff576120ff6137fa565b60008281526020812060066000199093019283020180546001600160a01b0319168155906121306001830182612eba565b61213e600283016000612eba565b5060038101805461ffff191690556000600482018190556005909101805474ffffffffffffffffffffffffffffffffffffffffff1916905591556001600160a01b0383168152600b60205260408120555050565b336000908152600d6020526040902054600180549091829181106121b8576121b861348e565b9060005260206000209060070201600601805490506121d791906136e0565b810361220257336000908152600d60205260409020546001805490919081106120aa576120aa61348e565b5050565b336000908152600d602052604090205460018054909190811061222b5761222b61348e565b60009182526020909120600790910201546001600160a01b031633146122975760405162461bcd60e51b815260206004820152602d602482015260008051602061381183398151915260448201526c37ba1030903a32b9ba30ba37b960991b60648201526084016103c7565b336000908152600d60205260409020546001805490919081106122bc576122bc61348e565b600091825260209091206003600790920201015460ff1615156001146123195760405162461bcd60e51b81526020600482015260126024820152712ab9b2b9103737ba103637b3b3b2b21034b760711b60448201526064016103c7565b336000908152600d602052604090205460018054839290811061233e5761233e61348e565b906000526020600020906007020160040190816122029190613527565b336000908152600d60205260409020546001805490919081106123805761238061348e565b60009182526020909120600790910201546001600160a01b031633146123ec5760405162461bcd60e51b815260206004820152602d602482015260008051602061381183398151915260448201526c37ba1030903a32b9ba30ba37b960991b60648201526084016103c7565b336000908152600d60205260409020546001805490919081106124115761241161348e565b600091825260209091206003600790920201015460ff16151560011461246e5760405162461bcd60e51b81526020600482015260126024820152712ab9b2b9103737ba103637b3b3b2b21034b760711b60448201526064016103c7565b336000908152600d60205260408120546001805490919081106124935761249361348e565b60009182526020909120600790910201600301805460ff1916911515919091179055565b6001600160a01b0381166000908152600c6020908152604080832033808552600b9093529220548254606093859392909181106124f6576124f661348e565b60009182526020909120600690910201546001600160a01b031614801561258057506001600160a01b0381166000908152600c60209081526040808320338452600b9092528220548154811061254e5761254e61348e565b906000526020600020906006020160050160149054906101000a900460ff16600181111561257e5761257e6131d0565b145b6125c15760405162461bcd60e51b81526020600482015260126024820152712ab9b2b9103737ba103637b3b3b2b21034b760711b60448201526064016103c7565b6001600160a01b0381166000908152600c60209081526040808320338452600b90925290912054815481106125f8576125f861348e565b600091825260209091206003600690920201015460ff1615156001146126555760405162461bcd60e51b81526020600482015260126024820152712ab9b2b9103737ba103637b3b3b2b21034b760711b60448201526064016103c7565b6001600160a01b0383166000908152600d60205260409020546001805490919081106126835761268361348e565b6000918252602090912060079091020160030154610100900460ff16156127125760405162461bcd60e51b815260206004820152603060248201527f5465737461746f72206973207374696c6c20616c6976652c2063616e6e6f742060448201527f72657665616c207468652077696c6c2e0000000000000000000000000000000060648201526084016103c7565b61271b83612d58565b61278f576040805162461bcd60e51b81526020600482015260248101919091527f416c6c2062656e65666963696172696573206d757374207369676e207468652060448201527f77696c6c206265666f726520746865204349442069732072657665616c65642e60648201526084016103c7565b6001600160a01b0383166000908152600d60205260409020546001805490919081106127bd576127bd61348e565b906000526020600020906007020160040180546127d9906134a4565b80601f0160208091040260200160405190810160405280929190818152602001828054612805906134a4565b80156128525780601f1061282757610100808354040283529160200191612852565b820191906000526020600020905b81548152906001019060200180831161283557829003601f168201915b505050505091505b50919050565b6001600160a01b0383166000908152600c60209081526040808320338452600b909252822054815486929190811061289a5761289a61348e565b60009182526020909120600690910201546001600160a01b031633146129065760405162461bcd60e51b815260206004820152602d602482015260008051602061381183398151915260448201526c37ba1030903a32b9ba30ba37b960991b60648201526084016103c7565b336000908152600b60209081526040808320546001600160a01b0389168452600c9092529091208054869190839081106129425761294261348e565b9060005260206000209060060201600101908161295f9190613527565b506001600160a01b0386166000908152600c6020526040902080548591908390811061298d5761298d61348e565b906000526020600020906006020160020190816129aa9190613527565b5060019695505050505050565b336000908152600d6020526040902054600180546060929081106129dd576129dd61348e565b60009182526020909120600790910201546001600160a01b03163314612a495760405162461bcd60e51b815260206004820152602d602482015260008051602061381183398151915260448201526c37ba1030903a32b9ba30ba37b960991b60648201526084016103c7565b336000908152600d6020526040902054600180549091908110612a6e57612a6e61348e565b600091825260209091206003600790920201015460ff161515600114612acb5760405162461bcd60e51b81526020600482015260126024820152712ab9b2b9103737ba103637b3b3b2b21034b760711b60448201526064016103c7565b6001600160a01b0382166000908152600c6020908152604080832080548251818502810185019093528083529193909284015b82821015612cdc5760008481526020908190206040805161010081019091526006850290910180546001600160a01b031682526001810180549293919291840191612b48906134a4565b80601f0160208091040260200160405190810160405280929190818152602001828054612b74906134a4565b8015612bc15780601f10612b9657610100808354040283529160200191612bc1565b820191906000526020600020905b815481529060010190602001808311612ba457829003601f168201915b50505050508152602001600282018054612bda906134a4565b80601f0160208091040260200160405190810160405280929190818152602001828054612c06906134a4565b8015612c535780601f10612c2857610100808354040283529160200191612c53565b820191906000526020600020905b815481529060010190602001808311612c3657829003601f168201915b5050509183525050600382015460ff808216151560208401526101009091048116151560408301526004830154606083015260058301546001600160a01b038116608084015260a090920191600160a01b9004166001811115612cb857612cb86131d0565b6001811115612cc957612cc96131d0565b8152505081526020019060010190612afe565b505050509050919050565b61071881604051602401612cfb91906133a5565b60408051601f198184030181529190526020810180517bffffffffffffffffffffffffffffffffffffffffffffffffffffffff167f41304fac00000000000000000000000000000000000000000000000000000000179052612e4e565b6000805b6001600160a01b0383166000908152600c6020526040902054811015612e455760016001600160a01b0384166000908152600c60205260409020805483908110612da857612da861348e565b906000526020600020906006020160050160149054906101000a900460ff166001811115612dd857612dd86131d0565b14612e33576001600160a01b0383166000908152600c60205260409020805482908110612e0757612e0761348e565b906000526020600020906006020160030160019054906101000a900460ff16612e335750600092915050565b80612e3d816137e1565b915050612d5c565b50600192915050565b80516a636f6e736f6c652e6c6f67602083016000808483855afa5050505050565b828054828255906000526020600020908101928215612eaa579160200282015b82811115612eaa578251825591602001919060010190612e8f565b50612eb6929150612ef0565b5090565b508054612ec6906134a4565b6000825580601f10612ed6575050565b601f01602090049060005260206000209081019061071891905b5b80821115612eb65760008155600101612ef1565b80356001600160a01b0381168114610de257600080fd5b634e487b7160e01b600052604160045260246000fd5b600082601f830112612f4357600080fd5b813567ffffffffffffffff80821115612f5e57612f5e612f1c565b604051601f8301601f19908116603f01168101908282118183101715612f8657612f86612f1c565b81604052838152866020858801011115612f9f57600080fd5b836020870160208301376000602085830101528094505050505092915050565b600080600060608486031215612fd457600080fd5b612fdd84612f05565b9250602084013567ffffffffffffffff811115612ff957600080fd5b61300586828701612f32565b925050604084013590509250925092565b60006020828403121561302857600080fd5b61303182612f05565b9392505050565b60005b8381101561305357818101518382015260200161303b565b50506000910152565b60008151808452613074816020860160208601613038565b601f01601f19169290920160200192915050565b600081518084526020808501945080840160005b838110156130b85781518752958201959082019060010161309c565b509495945050505050565b602081526130dd6020820183516001600160a01b03169052565b600060208301516101208060408501526130fb61014085018361305c565b91506040850151601f1980868503016060870152613119848361305c565b935060608701519150613130608087018315159052565b608087015180151560a0880152915060a087015180151560c0880152915060c08701519150808685030160e0870152613169848361305c565b60e08801516101008881019190915288015187820390920184880152935090506131938382613088565b9695505050505050565b600080604083850312156131b057600080fd5b6131b983612f05565b91506131c760208401612f05565b90509250929050565b634e487b7160e01b600052602160045260246000fd5b6002811061320457634e487b7160e01b600052602160045260246000fd5b9052565b60006101006001600160a01b03835116845260208301518160208601526132318286018261305c565b9150506040830151848203604086015261324b828261305c565b915050606083015115156060850152608083015161326d608086018215159052565b5060a083015160a085015260c083015161329260c08601826001600160a01b03169052565b5060e08301516132a560e08601826131e6565b509392505050565b6020815260006130316020830184613208565b6000602082840312156132d257600080fd5b813567ffffffffffffffff8111156132e957600080fd5b6132f584828501612f32565b949350505050565b6000806040838503121561331057600080fd5b823567ffffffffffffffff8082111561332857600080fd5b61333486838701612f32565b9350602085013591508082111561334a57600080fd5b5061335785828601612f32565b9150509250929050565b6000806040838503121561337457600080fd5b61337d83612f05565b9150602083013567ffffffffffffffff81111561339957600080fd5b61335785828601612f32565b602081526000613031602083018461305c565b6000806000606084860312156133cd57600080fd5b6133d684612f05565b9250602084013567ffffffffffffffff808211156133f357600080fd5b6133ff87838801612f32565b9350604086013591508082111561341557600080fd5b5061342286828701612f32565b9150509250925092565b6000602080830181845280855180835260408601915060408160051b870101925083870160005b8281101561348157603f1988860301845261346f858351613208565b94509285019290850190600101613453565b5092979650505050505050565b634e487b7160e01b600052603260045260246000fd5b600181811c908216806134b857607f821691505b60208210810361285a57634e487b7160e01b600052602260045260246000fd5b601f82111561352257600081815260208120601f850160051c810160208610156134ff5750805b601f850160051c820191505b8181101561351e5782815560010161350b565b5050505b505050565b815167ffffffffffffffff81111561354157613541612f1c565b6135558161354f84546134a4565b846134d8565b602080601f83116001811461358a57600084156135725750858301515b600019600386901b1c1916600185901b17855561351e565b600085815260208120601f198616915b828110156135b95788860151825594840194600190910190840161359a565b50858210156135d75787850151600019600388901b60f8161c191681555b5050505050600190811b01905550565b600081546135f4816134a4565b6001828116801561360c576001811461362157613650565b60ff1984168752821515830287019450613650565b8560005260208060002060005b858110156136475781548a82015290840190820161362e565b50505082870194505b5050505092915050565b600061303182846135e7565b60008351613678818460208801613038565b60609390931b6bffffffffffffffffffffffff19169190920190815260140192915050565b60006136a982856135e7565b60609390931b6bffffffffffffffffffffffff191683525050601401919050565b634e487b7160e01b600052601160045260246000fd5b81810381811115611141576111416136ca565b80820180821115611141576111416136ca565b818103613711575050565b61371b82546134a4565b67ffffffffffffffff81111561373357613733612f1c565b6137418161354f84546134a4565b6000601f821160018114613775576000831561375d5750848201545b600019600385901b1c1916600184901b1784556137da565b600085815260209020601f19841690600086815260209020845b838110156137af578286015482556001958601959091019060200161378f565b50858310156137cd5781850154600019600388901b60f8161c191681555b50505060018360011b0184555b5050505050565b6000600182016137f3576137f36136ca565b5060010190565b634e487b7160e01b600052603160045260246000fdfe4f776e65727368697020417373657274696f6e3a2043616c6c6572206973206ea26469706673582212208ff48f2c73a8ec784636313959dafa324ac94d4ee0209ca7634b69928de4f4af64736f6c63430008120033536d61727420436f6e7472616374204465706c6f796564205375636365737366756c6c79",
  "linkReferences": {},
  "deployedLinkReferences": {}
}