{
  "_format": "hh-sol-artifact-1",
  "contractName": "Holographic",
  "sourceName": "contracts/Holographic.sol",
  "abi": [
    {
      "inputs": [],
      "stateMutability": "nonpayable",
      "type": "constructor"
    },
    {
      "inputs": [
        {
          "internalType": "address",
          "name": "nonTestatorAddr",
          "type": "address"
        },
        {
          "internalType": "string",
          "name": "name",
          "type": "string"
        },
        {
          "internalType": "uint256",
          "name": "_userType",
          "type": "uint256"
        }
      ],
      "name": "addNonTestator",
      "outputs": [],
      "stateMutability": "nonpayable",
      "type": "function"
    },
    {
      "inputs": [
        {
          "internalType": "address",
          "name": "testatorAddr",
          "type": "address"
        }
      ],
      "name": "declareDeath",
      "outputs": [],
      "stateMutability": "nonpayable",
      "type": "function"
    },
    {
      "inputs": [
        {
          "internalType": "address",
          "name": "nonTestatorAddr",
          "type": "address"
        }
      ],
      "name": "deleteNonTestator",
      "outputs": [],
      "stateMutability": "nonpayable",
      "type": "function"
    },
    {
      "inputs": [
        {
          "internalType": "address",
          "name": "apocalypse",
          "type": "address"
        }
      ],
      "name": "destroy",
      "outputs": [],
      "stateMutability": "nonpayable",
      "type": "function"
    },
    {
      "inputs": [
        {
          "internalType": "address",
          "name": "testatorAddr",
          "type": "address"
        }
      ],
      "name": "getAllNonTestators",
      "outputs": [
        {
          "components": [
            {
              "internalType": "address",
              "name": "addr",
              "type": "address"
            },
            {
              "internalType": "string",
              "name": "name",
              "type": "string"
            },
            {
              "internalType": "string",
              "name": "password",
              "type": "string"
            },
            {
              "internalType": "bool",
              "name": "isLoggedIn",
              "type": "bool"
            },
            {
              "internalType": "bool",
              "name": "hasSigned",
              "type": "bool"
            },
            {
              "internalType": "uint256",
              "name": "id",
              "type": "uint256"
            },
            {
              "internalType": "address",
              "name": "testatorAddr",
              "type": "address"
            },
            {
              "internalType": "enum Holographic.NonTestatorType",
              "name": "userType",
              "type": "uint8"
            }
          ],
          "internalType": "struct Holographic.NonTestator[]",
          "name": "",
          "type": "tuple[]"
        }
      ],
      "stateMutability": "view",
      "type": "function"
    },
    {
      "inputs": [
        {
          "internalType": "address",
          "name": "testatorAddr",
          "type": "address"
        },
        {
          "internalType": "address",
          "name": "nonTestatorAddr",
          "type": "address"
        }
      ],
      "name": "getnonTestator",
      "outputs": [
        {
          "components": [
            {
              "internalType": "address",
              "name": "addr",
              "type": "address"
            },
            {
              "internalType": "string",
              "name": "name",
              "type": "string"
            },
            {
              "internalType": "string",
              "name": "password",
              "type": "string"
            },
            {
              "internalType": "bool",
              "name": "isLoggedIn",
              "type": "bool"
            },
            {
              "internalType": "bool",
              "name": "hasSigned",
              "type": "bool"
            },
            {
              "internalType": "uint256",
              "name": "id",
              "type": "uint256"
            },
            {
              "internalType": "address",
              "name": "testatorAddr",
              "type": "address"
            },
            {
              "internalType": "enum Holographic.NonTestatorType",
              "name": "userType",
              "type": "uint8"
            }
          ],
          "internalType": "struct Holographic.NonTestator",
          "name": "",
          "type": "tuple"
        }
      ],
      "stateMutability": "view",
      "type": "function"
    },
    {
      "inputs": [
        {
          "internalType": "address",
          "name": "testatorAddr",
          "type": "address"
        },
        {
          "internalType": "string",
          "name": "_password",
          "type": "string"
        }
      ],
      "name": "loginAsNonTestator",
      "outputs": [
        {
          "internalType": "bool",
          "name": "",
          "type": "bool"
        }
      ],
      "stateMutability": "nonpayable",
      "type": "function"
    },
    {
      "inputs": [
        {
          "internalType": "string",
          "name": "_password",
          "type": "string"
        }
      ],
      "name": "loginAsTestator",
      "outputs": [
        {
          "internalType": "bool",
          "name": "",
          "type": "bool"
        }
      ],
      "stateMutability": "nonpayable",
      "type": "function"
    },
    {
      "inputs": [
        {
          "internalType": "address",
          "name": "testatorAddr",
          "type": "address"
        }
      ],
      "name": "logoutNonTestator",
      "outputs": [],
      "stateMutability": "nonpayable",
      "type": "function"
    },
    {
      "inputs": [],
      "name": "logoutTestator",
      "outputs": [],
      "stateMutability": "nonpayable",
      "type": "function"
    },
    {
      "inputs": [
        {
          "internalType": "string",
          "name": "_name",
          "type": "string"
        },
        {
          "internalType": "string",
          "name": "_password",
          "type": "string"
        }
      ],
      "name": "registerTestator",
      "outputs": [
        {
          "internalType": "uint256",
          "name": "",
          "type": "uint256"
        }
      ],
      "stateMutability": "nonpayable",
      "type": "function"
    },
    {
      "inputs": [
        {
          "internalType": "address",
          "name": "testatorAddr",
          "type": "address"
        }
      ],
      "name": "revealWillIPFSCID",
      "outputs": [
        {
          "internalType": "string",
          "name": "",
          "type": "string"
        }
      ],
      "stateMutability": "view",
      "type": "function"
    },
    {
      "inputs": [
        {
          "internalType": "address",
          "name": "testatorAddr",
          "type": "address"
        }
      ],
      "name": "signWill",
      "outputs": [],
      "stateMutability": "nonpayable",
      "type": "function"
    },
    {
      "inputs": [
        {
          "internalType": "address",
          "name": "testatorAddr",
          "type": "address"
        },
        {
          "internalType": "string",
          "name": "_name",
          "type": "string"
        },
        {
          "internalType": "string",
          "name": "_password",
          "type": "string"
        }
      ],
      "name": "signupAsNonTestator",
      "outputs": [
        {
          "internalType": "bool",
          "name": "",
          "type": "bool"
        }
      ],
      "stateMutability": "nonpayable",
      "type": "function"
    },
    {
      "inputs": [
        {
          "internalType": "string",
          "name": "ipfsCID",
          "type": "string"
        }
      ],
      "name": "uploadWillIPFSCID",
      "outputs": [],
      "stateMutability": "nonpayable",
      "type": "function"
    },
    {
      "inputs": [
        {
          "internalType": "address",
          "name": "testatorAddr",
          "type": "address"
        }
      ],
      "name": "viewTestator",
      "outputs": [
        {
          "components": [
            {
              "internalType": "address",
              "name": "addr",
              "type": "address"
            },
            {
              "internalType": "string",
              "name": "name",
              "type": "string"
            },
            {
              "internalType": "string",
              "name": "password",
              "type": "string"
            },
            {
              "internalType": "bool",
              "name": "isLoggedIn",
              "type": "bool"
            },
            {
              "internalType": "bool",
              "name": "testatorAlive",
              "type": "bool"
            },
            {
              "internalType": "bool",
              "name": "allNonTestatorsSigned",
              "type": "bool"
            },
            {
              "internalType": "string",
              "name": "willIPFSCID",
              "type": "string"
            },
            {
              "internalType": "uint256",
              "name": "id",
              "type": "uint256"
            },
            {
              "internalType": "uint256[]",
              "name": "nonTestatorsIds",
              "type": "uint256[]"
            }
          ],
          "internalType": "struct Holographic.Testator",
          "name": "",
          "type": "tuple"
        }
      ],
      "stateMutability": "view",
      "type": "function"
    }
  ],
  "bytecode": "0x60806040523480156200001157600080fd5b506200004160405180606001604052806024815260200162006165602491396200008760201b6200443d1760201c565b336000806101000a81548173ffffffffffffffffffffffffffffffffffffffff021916908373ffffffffffffffffffffffffffffffffffffffff16021790555062000211565b62000127816040516024016200009e9190620001ed565b6040516020818303038152906040527f41304fac000000000000000000000000000000000000000000000000000000007bffffffffffffffffffffffffffffffffffffffffffffffffffffffff19166020820180517bffffffffffffffffffffffffffffffffffffffffffffffffffffffff83818316178352505050506200012a60201b60201c565b50565b60008151905060006a636f6e736f6c652e6c6f679050602083016000808483855afa5050505050565b600081519050919050565b600082825260208201905092915050565b60005b838110156200018f57808201518184015260208101905062000172565b60008484015250505050565b6000601f19601f8301169050919050565b6000620001b98262000153565b620001c581856200015e565b9350620001d78185602086016200016f565b620001e2816200019b565b840191505092915050565b60006020820190508181036000830152620002098184620001ac565b905092915050565b615f4480620002216000396000f3fe608060405234801561001057600080fd5b50600436106100fe5760003560e01c8063762bdcea11610097578063ae4ac7a211610066578063ae4ac7a2146102b7578063b13a7145146102c1578063ecb942e8146102f1578063f8e67c8a14610321576100fe565b8063762bdcea1461021f5780637d6378721461024f578063996fd42b1461027f5780639d85c1571461029b576100fe565b806349f51479116100d357806349f51479146101875780634d8c7e10146101b75780634df5d72a146101e7578063509bd65114610203576100fe565b8062c9480f14610103578062f55d9d1461011f5780630fec7c721461013b5780631d5559b514610157575b600080fd5b61011d60048036038101906101189190614a10565b610351565b005b61013960048036038101906101349190614a7f565b610879565b005b61015560048036038101906101509190614a7f565b61098d565b005b610171600480360381019061016c9190614a7f565b610e08565b60405161017e9190614ced565b60405180910390f35b6101a1600480360381019061019c9190614d0f565b6112ed565b6040516101ae9190614e7d565b60405180910390f35b6101d160048036038101906101cc9190614e9f565b61179c565b6040516101de9190614ef7565b60405180910390f35b61020160048036038101906101fc9190614a7f565b6119a5565b005b61021d60048036038101906102189190614a7f565b611d3d565b005b61023960048036038101906102349190614f12565b6120c0565b6040516102469190614f99565b60405180910390f35b61026960048036038101906102649190614fb4565b612354565b6040516102769190614ef7565b60405180910390f35b61029960048036038101906102949190614a7f565b6127b4565b005b6102b560048036038101906102b09190614e9f565b613404565b005b6102bf613623565b005b6102db60048036038101906102d69190614a7f565b61384c565b6040516102e8919061505a565b60405180910390f35b61030b6004803603810190610306919061507c565b613d46565b6040516103189190614ef7565b60405180910390f35b61033b60048036038101906103369190614a7f565b613fa9565b6040516103489190615280565b60405180910390f35b6001600d60003373ffffffffffffffffffffffffffffffffffffffff1673ffffffffffffffffffffffffffffffffffffffff16815260200190815260200160002054815481106103a4576103a36152a2565b5b906000526020600020906007020160000160009054906101000a900473ffffffffffffffffffffffffffffffffffffffff1673ffffffffffffffffffffffffffffffffffffffff163373ffffffffffffffffffffffffffffffffffffffff1614610443576040517f08c379a000000000000000000000000000000000000000000000000000000000815260040161043a90615343565b60405180910390fd5b600115156001600d60003373ffffffffffffffffffffffffffffffffffffffff1673ffffffffffffffffffffffffffffffffffffffff168152602001908152602001600020548154811061049a576104996152a2565b5b906000526020600020906007020160030160009054906101000a900460ff161515146104fb576040517f08c379a00000000000000000000000000000000000000000000000000000000081526004016104f2906153af565b60405180910390fd5b60006001600d60003373ffffffffffffffffffffffffffffffffffffffff1673ffffffffffffffffffffffffffffffffffffffff16815260200190815260200160002054815481106105505761054f6152a2565b5b90600052602060002090600702016006018054905090506001600d60003373ffffffffffffffffffffffffffffffffffffffff1673ffffffffffffffffffffffffffffffffffffffff16815260200190815260200160002054815481106105ba576105b96152a2565b5b906000526020600020906007020160060181908060018154018082558091505060019003906000526020600020016000909190919091505580600b60008673ffffffffffffffffffffffffffffffffffffffff1673ffffffffffffffffffffffffffffffffffffffff16815260200190815260200160002081905550600c60003373ffffffffffffffffffffffffffffffffffffffff1673ffffffffffffffffffffffffffffffffffffffff1681526020019081526020016000206040518061010001604052808673ffffffffffffffffffffffffffffffffffffffff1681526020018581526020016040518060200160405280600081525081526020016000151581526020016000151581526020018381526020013373ffffffffffffffffffffffffffffffffffffffff1681526020018460018111156106ff576106fe614d4f565b5b600181111561071157610710614d4f565b5b815250908060018154018082558091505060019003906000526020600020906006020160009091909190915060008201518160000160006101000a81548173ffffffffffffffffffffffffffffffffffffffff021916908373ffffffffffffffffffffffffffffffffffffffff160217905550602082015181600101908161079991906155db565b5060408201518160020190816107af91906155db565b5060608201518160030160006101000a81548160ff02191690831515021790555060808201518160030160016101000a81548160ff02191690831515021790555060a0820151816004015560c08201518160050160006101000a81548173ffffffffffffffffffffffffffffffffffffffff021916908373ffffffffffffffffffffffffffffffffffffffff16021790555060e08201518160050160146101000a81548160ff0219169083600181111561086c5761086b614d4f565b5b0217905550505050505050565b60008054906101000a900473ffffffffffffffffffffffffffffffffffffffff1673ffffffffffffffffffffffffffffffffffffffff163373ffffffffffffffffffffffffffffffffffffffff1614610907576040517f08c379a00000000000000000000000000000000000000000000000000000000081526004016108fe9061571f565b60405180910390fd5b600073ffffffffffffffffffffffffffffffffffffffff168173ffffffffffffffffffffffffffffffffffffffff1614610954578073ffffffffffffffffffffffffffffffffffffffff16ff5b60008054906101000a900473ffffffffffffffffffffffffffffffffffffffff1673ffffffffffffffffffffffffffffffffffffffff16ff5b80600015156001600d60008473ffffffffffffffffffffffffffffffffffffffff1673ffffffffffffffffffffffffffffffffffffffff16815260200190815260200160002054815481106109e5576109e46152a2565b5b906000526020600020906007020160030160019054906101000a900460ff16151514610a46576040517f08c379a0000000000000000000000000000000000000000000000000000000008152600401610a3d906157b1565b60405180910390fd5b813373ffffffffffffffffffffffffffffffffffffffff16600c60008373ffffffffffffffffffffffffffffffffffffffff1673ffffffffffffffffffffffffffffffffffffffff168152602001908152602001600020600b60003373ffffffffffffffffffffffffffffffffffffffff1673ffffffffffffffffffffffffffffffffffffffff1681526020019081526020016000205481548110610aee57610aed6152a2565b5b906000526020600020906006020160000160009054906101000a900473ffffffffffffffffffffffffffffffffffffffff1673ffffffffffffffffffffffffffffffffffffffff16148015610c15575060006001811115610b5257610b51614d4f565b5b600c60008373ffffffffffffffffffffffffffffffffffffffff1673ffffffffffffffffffffffffffffffffffffffff168152602001908152602001600020600b60003373ffffffffffffffffffffffffffffffffffffffff1673ffffffffffffffffffffffffffffffffffffffff1681526020019081526020016000205481548110610be257610be16152a2565b5b906000526020600020906006020160050160149054906101000a900460ff166001811115610c1357610c12614d4f565b5b145b610c54576040517f08c379a0000000000000000000000000000000000000000000000000000000008152600401610c4b906153af565b60405180910390fd5b60011515600c60008373ffffffffffffffffffffffffffffffffffffffff1673ffffffffffffffffffffffffffffffffffffffff168152602001908152602001600020600b60003373ffffffffffffffffffffffffffffffffffffffff1673ffffffffffffffffffffffffffffffffffffffff1681526020019081526020016000205481548110610ce857610ce76152a2565b5b906000526020600020906006020160030160009054906101000a900460ff16151514610d49576040517f08c379a0000000000000000000000000000000000000000000000000000000008152600401610d40906153af565b60405180910390fd5b6001600c60008573ffffffffffffffffffffffffffffffffffffffff1673ffffffffffffffffffffffffffffffffffffffff168152602001908152602001600020600b60003373ffffffffffffffffffffffffffffffffffffffff1673ffffffffffffffffffffffffffffffffffffffff1681526020019081526020016000205481548110610ddb57610dda6152a2565b5b906000526020600020906006020160030160016101000a81548160ff021916908315150217905550505050565b610e10614689565b6001600d60003373ffffffffffffffffffffffffffffffffffffffff1673ffffffffffffffffffffffffffffffffffffffff1681526020019081526020016000205481548110610e6357610e626152a2565b5b906000526020600020906007020160000160009054906101000a900473ffffffffffffffffffffffffffffffffffffffff1673ffffffffffffffffffffffffffffffffffffffff163373ffffffffffffffffffffffffffffffffffffffff1614610f02576040517f08c379a0000000000000000000000000000000000000000000000000000000008152600401610ef990615343565b60405180910390fd5b600115156001600d60003373ffffffffffffffffffffffffffffffffffffffff1673ffffffffffffffffffffffffffffffffffffffff1681526020019081526020016000205481548110610f5957610f586152a2565b5b906000526020600020906007020160030160009054906101000a900460ff16151514610fba576040517f08c379a0000000000000000000000000000000000000000000000000000000008152600401610fb1906153af565b60405180910390fd5b6001600d60008473ffffffffffffffffffffffffffffffffffffffff1673ffffffffffffffffffffffffffffffffffffffff168152602001908152602001600020548154811061100d5761100c6152a2565b5b9060005260206000209060070201604051806101200160405290816000820160009054906101000a900473ffffffffffffffffffffffffffffffffffffffff1673ffffffffffffffffffffffffffffffffffffffff1673ffffffffffffffffffffffffffffffffffffffff16815260200160018201805461108d906153fe565b80601f01602080910402602001604051908101604052809291908181526020018280546110b9906153fe565b80156111065780601f106110db57610100808354040283529160200191611106565b820191906000526020600020905b8154815290600101906020018083116110e957829003601f168201915b5050505050815260200160028201805461111f906153fe565b80601f016020809104026020016040519081016040528092919081815260200182805461114b906153fe565b80156111985780601f1061116d57610100808354040283529160200191611198565b820191906000526020600020905b81548152906001019060200180831161117b57829003601f168201915b505050505081526020016003820160009054906101000a900460ff161515151581526020016003820160019054906101000a900460ff161515151581526020016003820160029054906101000a900460ff16151515158152602001600482018054611202906153fe565b80601f016020809104026020016040519081016040528092919081815260200182805461122e906153fe565b801561127b5780601f106112505761010080835404028352916020019161127b565b820191906000526020600020905b81548152906001019060200180831161125e57829003601f168201915b5050505050815260200160058201548152602001600682018054806020026020016040519081016040528092919081815260200182805480156112dd57602002820191906000526020600020905b8154815260200190600101908083116112c9575b5050505050815250509050919050565b6112f56146f1565b6001600d60003373ffffffffffffffffffffffffffffffffffffffff1673ffffffffffffffffffffffffffffffffffffffff1681526020019081526020016000205481548110611348576113476152a2565b5b906000526020600020906007020160000160009054906101000a900473ffffffffffffffffffffffffffffffffffffffff1673ffffffffffffffffffffffffffffffffffffffff163373ffffffffffffffffffffffffffffffffffffffff16146113e7576040517f08c379a00000000000000000000000000000000000000000000000000000000081526004016113de90615343565b60405180910390fd5b600115156001600d60003373ffffffffffffffffffffffffffffffffffffffff1673ffffffffffffffffffffffffffffffffffffffff168152602001908152602001600020548154811061143e5761143d6152a2565b5b906000526020600020906007020160030160009054906101000a900460ff1615151461149f576040517f08c379a0000000000000000000000000000000000000000000000000000000008152600401611496906153af565b60405180910390fd5b600c60008473ffffffffffffffffffffffffffffffffffffffff1673ffffffffffffffffffffffffffffffffffffffff168152602001908152602001600020600b60008473ffffffffffffffffffffffffffffffffffffffff1673ffffffffffffffffffffffffffffffffffffffff168152602001908152602001600020548154811061152f5761152e6152a2565b5b9060005260206000209060060201604051806101000160405290816000820160009054906101000a900473ffffffffffffffffffffffffffffffffffffffff1673ffffffffffffffffffffffffffffffffffffffff1673ffffffffffffffffffffffffffffffffffffffff1681526020016001820180546115af906153fe565b80601f01602080910402602001604051908101604052809291908181526020018280546115db906153fe565b80156116285780601f106115fd57610100808354040283529160200191611628565b820191906000526020600020905b81548152906001019060200180831161160b57829003601f168201915b50505050508152602001600282018054611641906153fe565b80601f016020809104026020016040519081016040528092919081815260200182805461166d906153fe565b80156116ba5780601f1061168f576101008083540402835291602001916116ba565b820191906000526020600020905b81548152906001019060200180831161169d57829003601f168201915b505050505081526020016003820160009054906101000a900460ff161515151581526020016003820160019054906101000a900460ff16151515158152602001600482015481526020016005820160009054906101000a900473ffffffffffffffffffffffffffffffffffffffff1673ffffffffffffffffffffffffffffffffffffffff1673ffffffffffffffffffffffffffffffffffffffff1681526020016005820160149054906101000a900460ff16600181111561177e5761177d614d4f565b5b60018111156117905761178f614d4f565b5b81525050905092915050565b60006001600d60003373ffffffffffffffffffffffffffffffffffffffff1673ffffffffffffffffffffffffffffffffffffffff16815260200190815260200160002054815481106117f1576117f06152a2565b5b906000526020600020906007020160000160009054906101000a900473ffffffffffffffffffffffffffffffffffffffff1673ffffffffffffffffffffffffffffffffffffffff163373ffffffffffffffffffffffffffffffffffffffff1614611890576040517f08c379a000000000000000000000000000000000000000000000000000000000815260040161188790615343565b60405180910390fd5b81805190602001206001600d60003373ffffffffffffffffffffffffffffffffffffffff1673ffffffffffffffffffffffffffffffffffffffff16815260200190815260200160002054815481106118eb576118ea6152a2565b5b90600052602060002090600702016002016040516119099190615874565b60405180910390200361199b57600180600d60003373ffffffffffffffffffffffffffffffffffffffff1673ffffffffffffffffffffffffffffffffffffffff168152602001908152602001600020548154811061196a576119696152a2565b5b906000526020600020906007020160030160006101000a81548160ff021916908315150217905550600190506119a0565b600090505b919050565b80600c60008273ffffffffffffffffffffffffffffffffffffffff1673ffffffffffffffffffffffffffffffffffffffff168152602001908152602001600020600b60003373ffffffffffffffffffffffffffffffffffffffff1673ffffffffffffffffffffffffffffffffffffffff1681526020019081526020016000205481548110611a3657611a356152a2565b5b906000526020600020906006020160000160009054906101000a900473ffffffffffffffffffffffffffffffffffffffff1673ffffffffffffffffffffffffffffffffffffffff163373ffffffffffffffffffffffffffffffffffffffff1614611ad5576040517f08c379a0000000000000000000000000000000000000000000000000000000008152600401611acc90615343565b60405180910390fd5b60011515600c60008373ffffffffffffffffffffffffffffffffffffffff1673ffffffffffffffffffffffffffffffffffffffff168152602001908152602001600020600b60003373ffffffffffffffffffffffffffffffffffffffff1673ffffffffffffffffffffffffffffffffffffffff1681526020019081526020016000205481548110611b6957611b686152a2565b5b906000526020600020906006020160030160009054906101000a900460ff16151514611bca576040517f08c379a0000000000000000000000000000000000000000000000000000000008152600401611bc1906153af565b60405180910390fd5b6000600b60003373ffffffffffffffffffffffffffffffffffffffff1673ffffffffffffffffffffffffffffffffffffffff168152602001908152602001600020549050600c60008473ffffffffffffffffffffffffffffffffffffffff1673ffffffffffffffffffffffffffffffffffffffff1681526020019081526020016000208181548110611c5f57611c5e6152a2565b5b906000526020600020906006020160030160009054906101000a900460ff16611cbd576040517f08c379a0000000000000000000000000000000000000000000000000000000008152600401611cb4906153af565b60405180910390fd5b6000600c60008573ffffffffffffffffffffffffffffffffffffffff1673ffffffffffffffffffffffffffffffffffffffff1681526020019081526020016000208281548110611d1057611d0f6152a2565b5b906000526020600020906006020160030160006101000a81548160ff021916908315150217905550505050565b803373ffffffffffffffffffffffffffffffffffffffff16600c60008373ffffffffffffffffffffffffffffffffffffffff1673ffffffffffffffffffffffffffffffffffffffff168152602001908152602001600020600b60003373ffffffffffffffffffffffffffffffffffffffff1673ffffffffffffffffffffffffffffffffffffffff1681526020019081526020016000205481548110611de557611de46152a2565b5b906000526020600020906006020160000160009054906101000a900473ffffffffffffffffffffffffffffffffffffffff1673ffffffffffffffffffffffffffffffffffffffff16148015611f0b5750600180811115611e4857611e47614d4f565b5b600c60008373ffffffffffffffffffffffffffffffffffffffff1673ffffffffffffffffffffffffffffffffffffffff168152602001908152602001600020600b60003373ffffffffffffffffffffffffffffffffffffffff1673ffffffffffffffffffffffffffffffffffffffff1681526020019081526020016000205481548110611ed857611ed76152a2565b5b906000526020600020906006020160050160149054906101000a900460ff166001811115611f0957611f08614d4f565b5b145b611f4a576040517f08c379a0000000000000000000000000000000000000000000000000000000008152600401611f4190615923565b60405180910390fd5b60011515600c60008373ffffffffffffffffffffffffffffffffffffffff1673ffffffffffffffffffffffffffffffffffffffff168152602001908152602001600020600b60003373ffffffffffffffffffffffffffffffffffffffff1673ffffffffffffffffffffffffffffffffffffffff1681526020019081526020016000205481548110611fde57611fdd6152a2565b5b906000526020600020906006020160030160009054906101000a900460ff1615151461203f576040517f08c379a0000000000000000000000000000000000000000000000000000000008152600401612036906153af565b60405180910390fd5b60006001600d60008573ffffffffffffffffffffffffffffffffffffffff1673ffffffffffffffffffffffffffffffffffffffff1681526020019081526020016000205481548110612094576120936152a2565b5b906000526020600020906007020160030160016101000a81548160ff0219169083151502179055505050565b6000806040518061012001604052803373ffffffffffffffffffffffffffffffffffffffff1681526020018581526020018481526020016000151581526020016001151581526020016000151581526020016040518060200160405280600081525081526020016001805490508152602001600067ffffffffffffffff81111561214d5761214c6148af565b5b60405190808252806020026020018201604052801561217b5781602001602082028036833780820191505090505b5081525090508060e00151600d60003373ffffffffffffffffffffffffffffffffffffffff1673ffffffffffffffffffffffffffffffffffffffff16815260200190815260200160002081905550600181908060018154018082558091505060019003906000526020600020906007020160009091909190915060008201518160000160006101000a81548173ffffffffffffffffffffffffffffffffffffffff021916908373ffffffffffffffffffffffffffffffffffffffff160217905550602082015181600101908161225191906155db565b50604082015181600201908161226791906155db565b5060608201518160030160006101000a81548160ff02191690831515021790555060808201518160030160016101000a81548160ff02191690831515021790555060a08201518160030160026101000a81548160ff02191690831515021790555060c08201518160040190816122dd91906155db565b5060e08201518160050155610100820151816006019080519060200190612305929190614778565b5050506123466040518060400160405280601381526020017f52656769737465722061206e657720557365720000000000000000000000000081525061443d565b8060e0015191505092915050565b600082600c60008273ffffffffffffffffffffffffffffffffffffffff1673ffffffffffffffffffffffffffffffffffffffff168152602001908152602001600020600b60003373ffffffffffffffffffffffffffffffffffffffff1673ffffffffffffffffffffffffffffffffffffffff16815260200190815260200160002054815481106123e7576123e66152a2565b5b906000526020600020906006020160000160009054906101000a900473ffffffffffffffffffffffffffffffffffffffff1673ffffffffffffffffffffffffffffffffffffffff163373ffffffffffffffffffffffffffffffffffffffff1614612486576040517f08c379a000000000000000000000000000000000000000000000000000000000815260040161247d90615343565b60405180910390fd5b6000600b60003373ffffffffffffffffffffffffffffffffffffffff1673ffffffffffffffffffffffffffffffffffffffff1681526020019081526020016000205490503373ffffffffffffffffffffffffffffffffffffffff16600c60008773ffffffffffffffffffffffffffffffffffffffff1673ffffffffffffffffffffffffffffffffffffffff1681526020019081526020016000208281548110612532576125316152a2565b5b906000526020600020906006020160000160009054906101000a900473ffffffffffffffffffffffffffffffffffffffff1673ffffffffffffffffffffffffffffffffffffffff16146125ba576040517f08c379a00000000000000000000000000000000000000000000000000000000081526004016125b19061598f565b60405180910390fd5b600c60008673ffffffffffffffffffffffffffffffffffffffff1673ffffffffffffffffffffffffffffffffffffffff168152602001908152602001600020818154811061260b5761260a6152a2565b5b906000526020600020906006020160030160009054906101000a900460ff161561266a576040517f08c379a0000000000000000000000000000000000000000000000000000000008152600401612661906159fb565b60405180910390fd5b833360405160200161267d929190615a9f565b60405160208183030381529060405280519060200120600c60008773ffffffffffffffffffffffffffffffffffffffff1673ffffffffffffffffffffffffffffffffffffffff16815260200190815260200160002082815481106126e4576126e36152a2565b5b906000526020600020906006020160020133604051602001612707929190615b4a565b60405160208183030381529060405280519060200120036127a7576001600c60008773ffffffffffffffffffffffffffffffffffffffff1673ffffffffffffffffffffffffffffffffffffffff1681526020019081526020016000208281548110612775576127746152a2565b5b906000526020600020906006020160030160006101000a81548160ff02191690831515021790555060019250506127ad565b60009250505b5092915050565b6001600d60003373ffffffffffffffffffffffffffffffffffffffff1673ffffffffffffffffffffffffffffffffffffffff1681526020019081526020016000205481548110612807576128066152a2565b5b906000526020600020906007020160000160009054906101000a900473ffffffffffffffffffffffffffffffffffffffff1673ffffffffffffffffffffffffffffffffffffffff163373ffffffffffffffffffffffffffffffffffffffff16146128a6576040517f08c379a000000000000000000000000000000000000000000000000000000000815260040161289d90615343565b60405180910390fd5b600115156001600d60003373ffffffffffffffffffffffffffffffffffffffff1673ffffffffffffffffffffffffffffffffffffffff16815260200190815260200160002054815481106128fd576128fc6152a2565b5b906000526020600020906007020160030160009054906101000a900460ff1615151461295e576040517f08c379a0000000000000000000000000000000000000000000000000000000008152600401612955906153af565b60405180910390fd5b600c60003373ffffffffffffffffffffffffffffffffffffffff1673ffffffffffffffffffffffffffffffffffffffff168152602001908152602001600020600b60008373ffffffffffffffffffffffffffffffffffffffff1673ffffffffffffffffffffffffffffffffffffffff16815260200190815260200160002054815481106129ee576129ed6152a2565b5b906000526020600020906006020160000160009054906101000a900473ffffffffffffffffffffffffffffffffffffffff1673ffffffffffffffffffffffffffffffffffffffff168173ffffffffffffffffffffffffffffffffffffffff1614612a8d576040517f08c379a0000000000000000000000000000000000000000000000000000000008152600401612a8490615bbe565b60405180910390fd5b6000600b60008373ffffffffffffffffffffffffffffffffffffffff1673ffffffffffffffffffffffffffffffffffffffff168152602001908152602001600020549050600180600d60003373ffffffffffffffffffffffffffffffffffffffff1673ffffffffffffffffffffffffffffffffffffffff1681526020019081526020016000205481548110612b2557612b246152a2565b5b906000526020600020906007020160060180549050612b449190615c0d565b81101561319e5760008190505b6001600d60003373ffffffffffffffffffffffffffffffffffffffff1673ffffffffffffffffffffffffffffffffffffffff1681526020019081526020016000205481548110612ba457612ba36152a2565b5b906000526020600020906007020160060180549050811015612fb1576001600d60003373ffffffffffffffffffffffffffffffffffffffff1673ffffffffffffffffffffffffffffffffffffffff1681526020019081526020016000205481548110612c1357612c126152a2565b5b9060005260206000209060070201600601600183612c319190615c41565b81548110612c4257612c416152a2565b5b90600052602060002001546001600d60003373ffffffffffffffffffffffffffffffffffffffff1673ffffffffffffffffffffffffffffffffffffffff1681526020019081526020016000205481548110612ca057612c9f6152a2565b5b90600052602060002090600702016006018381548110612cc357612cc26152a2565b5b9060005260206000200181905550600c60003373ffffffffffffffffffffffffffffffffffffffff1673ffffffffffffffffffffffffffffffffffffffff168152602001908152602001600020600183612d1d9190615c41565b81548110612d2e57612d2d6152a2565b5b9060005260206000209060060201600c60003373ffffffffffffffffffffffffffffffffffffffff1673ffffffffffffffffffffffffffffffffffffffff1681526020019081526020016000208381548110612d8d57612d8c6152a2565b5b90600052602060002090600602016000820160009054906101000a900473ffffffffffffffffffffffffffffffffffffffff168160000160006101000a81548173ffffffffffffffffffffffffffffffffffffffff021916908373ffffffffffffffffffffffffffffffffffffffff16021790555060018201816001019081612e169190615c8b565b5060028201816002019081612e2b9190615c8b565b506003820160009054906101000a900460ff168160030160006101000a81548160ff0219169083151502179055506003820160019054906101000a900460ff168160030160016101000a81548160ff021916908315150217905550600482015481600401556005820160009054906101000a900473ffffffffffffffffffffffffffffffffffffffff168160050160006101000a81548173ffffffffffffffffffffffffffffffffffffffff021916908373ffffffffffffffffffffffffffffffffffffffff1602179055506005820160149054906101000a900460ff168160050160146101000a81548160ff02191690836001811115612f2f57612f2e614d4f565b5b021790555090505081600c60003373ffffffffffffffffffffffffffffffffffffffff1673ffffffffffffffffffffffffffffffffffffffff1681526020019081526020016000208381548110612f8957612f886152a2565b5b9060005260206000209060060201600401819055508080612fa990615d73565b915050612b51565b506001600d60003373ffffffffffffffffffffffffffffffffffffffff1673ffffffffffffffffffffffffffffffffffffffff1681526020019081526020016000205481548110613005576130046152a2565b5b906000526020600020906007020160060180548061302657613025615dbb565b5b60019003818190600052602060002001600090559055600c60003373ffffffffffffffffffffffffffffffffffffffff1673ffffffffffffffffffffffffffffffffffffffff16815260200190815260200160002080548061308b5761308a615dbb565b5b6001900381819060005260206000209060060201600080820160006101000a81549073ffffffffffffffffffffffffffffffffffffffff02191690556001820160006130d791906147c5565b6002820160006130e791906147c5565b6003820160006101000a81549060ff02191690556003820160016101000a81549060ff021916905560048201600090556005820160006101000a81549073ffffffffffffffffffffffffffffffffffffffff02191690556005820160146101000a81549060ff021916905550509055600b60008373ffffffffffffffffffffffffffffffffffffffff1673ffffffffffffffffffffffffffffffffffffffff16815260200190815260200160002060009055613400565b600180600d60003373ffffffffffffffffffffffffffffffffffffffff1673ffffffffffffffffffffffffffffffffffffffff16815260200190815260200160002054815481106131f2576131f16152a2565b5b9060005260206000209060070201600601805490506132119190615c0d565b81036133ff576001600d60003373ffffffffffffffffffffffffffffffffffffffff1673ffffffffffffffffffffffffffffffffffffffff168152602001908152602001600020548154811061326a576132696152a2565b5b906000526020600020906007020160060180548061328b5761328a615dbb565b5b60019003818190600052602060002001600090559055600c60003373ffffffffffffffffffffffffffffffffffffffff1673ffffffffffffffffffffffffffffffffffffffff1681526020019081526020016000208054806132f0576132ef615dbb565b5b6001900381819060005260206000209060060201600080820160006101000a81549073ffffffffffffffffffffffffffffffffffffffff021916905560018201600061333c91906147c5565b60028201600061334c91906147c5565b6003820160006101000a81549060ff02191690556003820160016101000a81549060ff021916905560048201600090556005820160006101000a81549073ffffffffffffffffffffffffffffffffffffffff02191690556005820160146101000a81549060ff021916905550509055600b60008373ffffffffffffffffffffffffffffffffffffffff1673ffffffffffffffffffffffffffffffffffffffff168152602001908152602001600020600090555b5b5050565b6001600d60003373ffffffffffffffffffffffffffffffffffffffff1673ffffffffffffffffffffffffffffffffffffffff1681526020019081526020016000205481548110613457576134566152a2565b5b906000526020600020906007020160000160009054906101000a900473ffffffffffffffffffffffffffffffffffffffff1673ffffffffffffffffffffffffffffffffffffffff163373ffffffffffffffffffffffffffffffffffffffff16146134f6576040517f08c379a00000000000000000000000000000000000000000000000000000000081526004016134ed90615343565b60405180910390fd5b600115156001600d60003373ffffffffffffffffffffffffffffffffffffffff1673ffffffffffffffffffffffffffffffffffffffff168152602001908152602001600020548154811061354d5761354c6152a2565b5b906000526020600020906007020160030160009054906101000a900460ff161515146135ae576040517f08c379a00000000000000000000000000000000000000000000000000000000081526004016135a5906153af565b60405180910390fd5b806001600d60003373ffffffffffffffffffffffffffffffffffffffff1673ffffffffffffffffffffffffffffffffffffffff1681526020019081526020016000205481548110613602576136016152a2565b5b9060005260206000209060070201600401908161361f91906155db565b5050565b6001600d60003373ffffffffffffffffffffffffffffffffffffffff1673ffffffffffffffffffffffffffffffffffffffff1681526020019081526020016000205481548110613676576136756152a2565b5b906000526020600020906007020160000160009054906101000a900473ffffffffffffffffffffffffffffffffffffffff1673ffffffffffffffffffffffffffffffffffffffff163373ffffffffffffffffffffffffffffffffffffffff1614613715576040517f08c379a000000000000000000000000000000000000000000000000000000000815260040161370c90615343565b60405180910390fd5b600115156001600d60003373ffffffffffffffffffffffffffffffffffffffff1673ffffffffffffffffffffffffffffffffffffffff168152602001908152602001600020548154811061376c5761376b6152a2565b5b906000526020600020906007020160030160009054906101000a900460ff161515146137cd576040517f08c379a00000000000000000000000000000000000000000000000000000000081526004016137c4906153af565b60405180910390fd5b60006001600d60003373ffffffffffffffffffffffffffffffffffffffff1673ffffffffffffffffffffffffffffffffffffffff1681526020019081526020016000205481548110613822576138216152a2565b5b906000526020600020906007020160030160006101000a81548160ff021916908315150217905550565b6060813373ffffffffffffffffffffffffffffffffffffffff16600c60008373ffffffffffffffffffffffffffffffffffffffff1673ffffffffffffffffffffffffffffffffffffffff168152602001908152602001600020600b60003373ffffffffffffffffffffffffffffffffffffffff1673ffffffffffffffffffffffffffffffffffffffff16815260200190815260200160002054815481106138f6576138f56152a2565b5b906000526020600020906006020160000160009054906101000a900473ffffffffffffffffffffffffffffffffffffffff1673ffffffffffffffffffffffffffffffffffffffff16148015613a1d57506000600181111561395a57613959614d4f565b5b600c60008373ffffffffffffffffffffffffffffffffffffffff1673ffffffffffffffffffffffffffffffffffffffff168152602001908152602001600020600b60003373ffffffffffffffffffffffffffffffffffffffff1673ffffffffffffffffffffffffffffffffffffffff16815260200190815260200160002054815481106139ea576139e96152a2565b5b906000526020600020906006020160050160149054906101000a900460ff166001811115613a1b57613a1a614d4f565b5b145b613a5c576040517f08c379a0000000000000000000000000000000000000000000000000000000008152600401613a53906153af565b60405180910390fd5b60011515600c60008373ffffffffffffffffffffffffffffffffffffffff1673ffffffffffffffffffffffffffffffffffffffff168152602001908152602001600020600b60003373ffffffffffffffffffffffffffffffffffffffff1673ffffffffffffffffffffffffffffffffffffffff1681526020019081526020016000205481548110613af057613aef6152a2565b5b906000526020600020906006020160030160009054906101000a900460ff16151514613b51576040517f08c379a0000000000000000000000000000000000000000000000000000000008152600401613b48906153af565b60405180910390fd5b600015156001600d60008673ffffffffffffffffffffffffffffffffffffffff1673ffffffffffffffffffffffffffffffffffffffff1681526020019081526020016000205481548110613ba857613ba76152a2565b5b906000526020600020906007020160030160019054906101000a900460ff16151514613c09576040517f08c379a0000000000000000000000000000000000000000000000000000000008152600401613c0090615e5c565b60405180910390fd5b613c12836144d6565b613c51576040517f08c379a0000000000000000000000000000000000000000000000000000000008152600401613c4890615eee565b60405180910390fd5b6001600d60008573ffffffffffffffffffffffffffffffffffffffff1673ffffffffffffffffffffffffffffffffffffffff1681526020019081526020016000205481548110613ca457613ca36152a2565b5b90600052602060002090600702016004018054613cc0906153fe565b80601f0160208091040260200160405190810160405280929190818152602001828054613cec906153fe565b8015613d395780601f10613d0e57610100808354040283529160200191613d39565b820191906000526020600020905b815481529060010190602001808311613d1c57829003601f168201915b5050505050915050919050565b600083600c60008273ffffffffffffffffffffffffffffffffffffffff1673ffffffffffffffffffffffffffffffffffffffff168152602001908152602001600020600b60003373ffffffffffffffffffffffffffffffffffffffff1673ffffffffffffffffffffffffffffffffffffffff1681526020019081526020016000205481548110613dd957613dd86152a2565b5b906000526020600020906006020160000160009054906101000a900473ffffffffffffffffffffffffffffffffffffffff1673ffffffffffffffffffffffffffffffffffffffff163373ffffffffffffffffffffffffffffffffffffffff1614613e78576040517f08c379a0000000000000000000000000000000000000000000000000000000008152600401613e6f90615343565b60405180910390fd5b6000600b60003373ffffffffffffffffffffffffffffffffffffffff1673ffffffffffffffffffffffffffffffffffffffff16815260200190815260200160002054905084600c60008873ffffffffffffffffffffffffffffffffffffffff1673ffffffffffffffffffffffffffffffffffffffff1681526020019081526020016000208281548110613f0e57613f0d6152a2565b5b90600052602060002090600602016001019081613f2b91906155db565b5083600c60008873ffffffffffffffffffffffffffffffffffffffff1673ffffffffffffffffffffffffffffffffffffffff1681526020019081526020016000208281548110613f7e57613f7d6152a2565b5b90600052602060002090600602016002019081613f9b91906155db565b506001925050509392505050565b60606001600d60003373ffffffffffffffffffffffffffffffffffffffff1673ffffffffffffffffffffffffffffffffffffffff1681526020019081526020016000205481548110613ffe57613ffd6152a2565b5b906000526020600020906007020160000160009054906101000a900473ffffffffffffffffffffffffffffffffffffffff1673ffffffffffffffffffffffffffffffffffffffff163373ffffffffffffffffffffffffffffffffffffffff161461409d576040517f08c379a000000000000000000000000000000000000000000000000000000000815260040161409490615343565b60405180910390fd5b600115156001600d60003373ffffffffffffffffffffffffffffffffffffffff1673ffffffffffffffffffffffffffffffffffffffff16815260200190815260200160002054815481106140f4576140f36152a2565b5b906000526020600020906007020160030160009054906101000a900460ff16151514614155576040517f08c379a000000000000000000000000000000000000000000000000000000000815260040161414c906153af565b60405180910390fd5b600c60008373ffffffffffffffffffffffffffffffffffffffff1673ffffffffffffffffffffffffffffffffffffffff168152602001908152602001600020805480602002602001604051908101604052809291908181526020016000905b828210156144325783829060005260206000209060060201604051806101000160405290816000820160009054906101000a900473ffffffffffffffffffffffffffffffffffffffff1673ffffffffffffffffffffffffffffffffffffffff1673ffffffffffffffffffffffffffffffffffffffff16815260200160018201805461423e906153fe565b80601f016020809104026020016040519081016040528092919081815260200182805461426a906153fe565b80156142b75780601f1061428c576101008083540402835291602001916142b7565b820191906000526020600020905b81548152906001019060200180831161429a57829003601f168201915b505050505081526020016002820180546142d0906153fe565b80601f01602080910402602001604051908101604052809291908181526020018280546142fc906153fe565b80156143495780601f1061431e57610100808354040283529160200191614349565b820191906000526020600020905b81548152906001019060200180831161432c57829003601f168201915b505050505081526020016003820160009054906101000a900460ff161515151581526020016003820160019054906101000a900460ff16151515158152602001600482015481526020016005820160009054906101000a900473ffffffffffffffffffffffffffffffffffffffff1673ffffffffffffffffffffffffffffffffffffffff1673ffffffffffffffffffffffffffffffffffffffff1681526020016005820160149054906101000a900460ff16600181111561440d5761440c614d4f565b5b600181111561441f5761441e614d4f565b5b81525050815260200190600101906141b4565b505050509050919050565b6144d381604051602401614451919061505a565b6040516020818303038152906040527f41304fac000000000000000000000000000000000000000000000000000000007bffffffffffffffffffffffffffffffffffffffffffffffffffffffff19166020820180517bffffffffffffffffffffffffffffffffffffffffffffffffffffffff8381831617835250505050614660565b50565b600080600090505b600c60008473ffffffffffffffffffffffffffffffffffffffff1673ffffffffffffffffffffffffffffffffffffffff168152602001908152602001600020805490508110156146555760018081111561453b5761453a614d4f565b5b600c60008573ffffffffffffffffffffffffffffffffffffffff1673ffffffffffffffffffffffffffffffffffffffff168152602001908152602001600020828154811061458c5761458b6152a2565b5b906000526020600020906006020160050160149054906101000a900460ff1660018111156145bd576145bc614d4f565b5b031561464257600c60008473ffffffffffffffffffffffffffffffffffffffff1673ffffffffffffffffffffffffffffffffffffffff1681526020019081526020016000208181548110614614576146136152a2565b5b906000526020600020906006020160030160019054906101000a900460ff1661464157600091505061465b565b5b808061464d90615d73565b9150506144de565b50600190505b919050565b60008151905060006a636f6e736f6c652e6c6f679050602083016000808483855afa5050505050565b604051806101200160405280600073ffffffffffffffffffffffffffffffffffffffff16815260200160608152602001606081526020016000151581526020016000151581526020016000151581526020016060815260200160008152602001606081525090565b604051806101000160405280600073ffffffffffffffffffffffffffffffffffffffff168152602001606081526020016060815260200160001515815260200160001515815260200160008152602001600073ffffffffffffffffffffffffffffffffffffffff1681526020016000600181111561477257614771614d4f565b5b81525090565b8280548282559060005260206000209081019282156147b4579160200282015b828111156147b3578251825591602001919060010190614798565b5b5090506147c19190614805565b5090565b5080546147d1906153fe565b6000825580601f106147e35750614802565b601f0160209004906000526020600020908101906148019190614805565b5b50565b5b8082111561481e576000816000905550600101614806565b5090565b6000604051905090565b600080fd5b600080fd5b600073ffffffffffffffffffffffffffffffffffffffff82169050919050565b600061486182614836565b9050919050565b61487181614856565b811461487c57600080fd5b50565b60008135905061488e81614868565b92915050565b600080fd5b600080fd5b6000601f19601f8301169050919050565b7f4e487b7100000000000000000000000000000000000000000000000000000000600052604160045260246000fd5b6148e78261489e565b810181811067ffffffffffffffff82111715614906576149056148af565b5b80604052505050565b6000614919614822565b905061492582826148de565b919050565b600067ffffffffffffffff821115614945576149446148af565b5b61494e8261489e565b9050602081019050919050565b82818337600083830152505050565b600061497d6149788461492a565b61490f565b90508281526020810184848401111561499957614998614899565b5b6149a484828561495b565b509392505050565b600082601f8301126149c1576149c0614894565b5b81356149d184826020860161496a565b91505092915050565b6000819050919050565b6149ed816149da565b81146149f857600080fd5b50565b600081359050614a0a816149e4565b92915050565b600080600060608486031215614a2957614a2861482c565b5b6000614a378682870161487f565b935050602084013567ffffffffffffffff811115614a5857614a57614831565b5b614a64868287016149ac565b9250506040614a75868287016149fb565b9150509250925092565b600060208284031215614a9557614a9461482c565b5b6000614aa38482850161487f565b91505092915050565b614ab581614856565b82525050565b600081519050919050565b600082825260208201905092915050565b60005b83811015614af5578082015181840152602081019050614ada565b60008484015250505050565b6000614b0c82614abb565b614b168185614ac6565b9350614b26818560208601614ad7565b614b2f8161489e565b840191505092915050565b60008115159050919050565b614b4f81614b3a565b82525050565b614b5e816149da565b82525050565b600081519050919050565b600082825260208201905092915050565b6000819050602082019050919050565b6000614b9c8383614b55565b60208301905092915050565b6000602082019050919050565b6000614bc082614b64565b614bca8185614b6f565b9350614bd583614b80565b8060005b83811015614c06578151614bed8882614b90565b9750614bf883614ba8565b925050600181019050614bd9565b5085935050505092915050565b600061012083016000830151614c2c6000860182614aac565b5060208301518482036020860152614c448282614b01565b91505060408301518482036040860152614c5e8282614b01565b9150506060830151614c736060860182614b46565b506080830151614c866080860182614b46565b5060a0830151614c9960a0860182614b46565b5060c083015184820360c0860152614cb18282614b01565b91505060e0830151614cc660e0860182614b55565b50610100830151848203610100860152614ce08282614bb5565b9150508091505092915050565b60006020820190508181036000830152614d078184614c13565b905092915050565b60008060408385031215614d2657614d2561482c565b5b6000614d348582860161487f565b9250506020614d458582860161487f565b9150509250929050565b7f4e487b7100000000000000000000000000000000000000000000000000000000600052602160045260246000fd5b60028110614d8f57614d8e614d4f565b5b50565b6000819050614da082614d7e565b919050565b6000614db082614d92565b9050919050565b614dc081614da5565b82525050565b600061010083016000830151614ddf6000860182614aac565b5060208301518482036020860152614df78282614b01565b91505060408301518482036040860152614e118282614b01565b9150506060830151614e266060860182614b46565b506080830151614e396080860182614b46565b5060a0830151614e4c60a0860182614b55565b5060c0830151614e5f60c0860182614aac565b5060e0830151614e7260e0860182614db7565b508091505092915050565b60006020820190508181036000830152614e978184614dc6565b905092915050565b600060208284031215614eb557614eb461482c565b5b600082013567ffffffffffffffff811115614ed357614ed2614831565b5b614edf848285016149ac565b91505092915050565b614ef181614b3a565b82525050565b6000602082019050614f0c6000830184614ee8565b92915050565b60008060408385031215614f2957614f2861482c565b5b600083013567ffffffffffffffff811115614f4757614f46614831565b5b614f53858286016149ac565b925050602083013567ffffffffffffffff811115614f7457614f73614831565b5b614f80858286016149ac565b9150509250929050565b614f93816149da565b82525050565b6000602082019050614fae6000830184614f8a565b92915050565b60008060408385031215614fcb57614fca61482c565b5b6000614fd98582860161487f565b925050602083013567ffffffffffffffff811115614ffa57614ff9614831565b5b615006858286016149ac565b9150509250929050565b600082825260208201905092915050565b600061502c82614abb565b6150368185615010565b9350615046818560208601614ad7565b61504f8161489e565b840191505092915050565b600060208201905081810360008301526150748184615021565b905092915050565b6000806000606084860312156150955761509461482c565b5b60006150a38682870161487f565b935050602084013567ffffffffffffffff8111156150c4576150c3614831565b5b6150d0868287016149ac565b925050604084013567ffffffffffffffff8111156150f1576150f0614831565b5b6150fd868287016149ac565b9150509250925092565b600081519050919050565b600082825260208201905092915050565b6000819050602082019050919050565b60006101008301600083015161514c6000860182614aac565b50602083015184820360208601526151648282614b01565b9150506040830151848203604086015261517e8282614b01565b91505060608301516151936060860182614b46565b5060808301516151a66080860182614b46565b5060a08301516151b960a0860182614b55565b5060c08301516151cc60c0860182614aac565b5060e08301516151df60e0860182614db7565b508091505092915050565b60006151f68383615133565b905092915050565b6000602082019050919050565b600061521682615107565b6152208185615112565b93508360208202850161523285615123565b8060005b8581101561526e578484038952815161524f85826151ea565b945061525a836151fe565b925060208a01995050600181019050615236565b50829750879550505050505092915050565b6000602082019050818103600083015261529a818461520b565b905092915050565b7f4e487b7100000000000000000000000000000000000000000000000000000000600052603260045260246000fd5b7f4f776e65727368697020417373657274696f6e3a2043616c6c6572206973206e60008201527f6f742061207465737461746f7200000000000000000000000000000000000000602082015250565b600061532d602d83615010565b9150615338826152d1565b604082019050919050565b6000602082019050818103600083015261535c81615320565b9050919050565b7f55736572206e6f74206c6f6767656420696e0000000000000000000000000000600082015250565b6000615399601283615010565b91506153a482615363565b602082019050919050565b600060208201905081810360008301526153c88161538c565b9050919050565b7f4e487b7100000000000000000000000000000000000000000000000000000000600052602260045260246000fd5b6000600282049050600182168061541657607f821691505b602082108103615429576154286153cf565b5b50919050565b60008190508160005260206000209050919050565b60006020601f8301049050919050565b600082821b905092915050565b6000600883026154917fffffffffffffffffffffffffffffffffffffffffffffffffffffffffffffffff82615454565b61549b8683615454565b95508019841693508086168417925050509392505050565b6000819050919050565b60006154d86154d36154ce846149da565b6154b3565b6149da565b9050919050565b6000819050919050565b6154f2836154bd565b6155066154fe826154df565b848454615461565b825550505050565b600090565b61551b61550e565b6155268184846154e9565b505050565b5b8181101561554a5761553f600082615513565b60018101905061552c565b5050565b601f82111561558f576155608161542f565b61556984615444565b81016020851015615578578190505b61558c61558485615444565b83018261552b565b50505b505050565b600082821c905092915050565b60006155b260001984600802615594565b1980831691505092915050565b60006155cb83836155a1565b9150826002028217905092915050565b6155e482614abb565b67ffffffffffffffff8111156155fd576155fc6148af565b5b61560782546153fe565b61561282828561554e565b600060209050601f8311600181146156455760008415615633578287015190505b61563d85826155bf565b8655506156a5565b601f1984166156538661542f565b60005b8281101561567b57848901518255600182019150602085019450602081019050615656565b868310156156985784890151615694601f8916826155a1565b8355505b6001600288020188555050505b505050505050565b7f4f6e6c7920746865206f776e65722063616e2063616c6c20746869732066756e60008201527f6374696f6e2e0000000000000000000000000000000000000000000000000000602082015250565b6000615709602683615010565b9150615714826156ad565b604082019050919050565b60006020820190508181036000830152615738816156fc565b9050919050565b7f5465737461746f722069732064656365617365642c2063616e6e6f742073696760008201527f6e207468652077696c6c2e000000000000000000000000000000000000000000602082015250565b600061579b602b83615010565b91506157a68261573f565b604082019050919050565b600060208201905081810360008301526157ca8161578e565b9050919050565b600081905092915050565b60008190508160005260206000209050919050565b600081546157fe816153fe565b61580881866157d1565b9450600182166000811461582357600181146158385761586b565b60ff198316865281151582028601935061586b565b615841856157dc565b60005b8381101561586357815481890152600182019150602081019050615844565b838801955050505b50505092915050565b600061588082846157f1565b915081905092915050565b7f4f776e65727368697020417373657274696f6e3a2043616c6c6572206973206e60008201527f6f74206120646f63746f72206f72206e6f74206120726567697374657265642060208201527f6e6f6e5465737461746f72000000000000000000000000000000000000000000604082015250565b600061590d604b83615010565b91506159188261588b565b606082019050919050565b6000602082019050818103600083015261593c81615900565b9050919050565b7f55736572206e6f74207265676973746572656400000000000000000000000000600082015250565b6000615979601383615010565b915061598482615943565b602082019050919050565b600060208201905081810360008301526159a88161596c565b9050919050565b7f5573657220616c7265616479206c6f6767656420696e00000000000000000000600082015250565b60006159e5601683615010565b91506159f0826159af565b602082019050919050565b60006020820190508181036000830152615a14816159d8565b9050919050565b600081905092915050565b6000615a3182614abb565b615a3b8185615a1b565b9350615a4b818560208601614ad7565b80840191505092915050565b60008160601b9050919050565b6000615a6f82615a57565b9050919050565b6000615a8182615a64565b9050919050565b615a99615a9482614856565b615a76565b82525050565b6000615aab8285615a26565b9150615ab78284615a88565b6014820191508190509392505050565b60008154615ad4816153fe565b615ade8186615a1b565b94506001821660008114615af95760018114615b0e57615b41565b60ff1983168652811515820286019350615b41565b615b178561542f565b60005b83811015615b3957815481890152600182019150602081019050615b1a565b838801955050505b50505092915050565b6000615b568285615ac7565b9150615b628284615a88565b6014820191508190509392505050565b7f41646472657373206973206e6f742061206e6f6e5465737461746f7200000000600082015250565b6000615ba8601c83615010565b9150615bb382615b72565b602082019050919050565b60006020820190508181036000830152615bd781615b9b565b9050919050565b7f4e487b7100000000000000000000000000000000000000000000000000000000600052601160045260246000fd5b6000615c18826149da565b9150615c23836149da565b9250828203905081811115615c3b57615c3a615bde565b5b92915050565b6000615c4c826149da565b9150615c57836149da565b9250828201905080821115615c6f57615c6e615bde565b5b92915050565b600081549050615c84816153fe565b9050919050565b818103615c99575050615d71565b615ca282615c75565b67ffffffffffffffff811115615cbb57615cba6148af565b5b615cc582546153fe565b615cd082828561554e565b6000601f831160018114615cff5760008415615ced578287015490505b615cf785826155bf565b865550615d6a565b601f198416615d0d8761542f565b9650615d188661542f565b60005b82811015615d4057848901548255600182019150600185019450602081019050615d1b565b86831015615d5d5784890154615d59601f8916826155a1565b8355505b6001600288020188555050505b5050505050505b565b6000615d7e826149da565b91507fffffffffffffffffffffffffffffffffffffffffffffffffffffffffffffffff8203615db057615daf615bde565b5b600182019050919050565b7f4e487b7100000000000000000000000000000000000000000000000000000000600052603160045260246000fd5b7f5465737461746f72206973207374696c6c20616c6976652c2063616e6e6f742060008201527f72657665616c207468652077696c6c2e00000000000000000000000000000000602082015250565b6000615e46603083615010565b9150615e5182615dea565b604082019050919050565b60006020820190508181036000830152615e7581615e39565b9050919050565b7f416c6c2062656e65666963696172696573206d757374207369676e207468652060008201527f77696c6c206265666f726520746865204349442069732072657665616c65642e602082015250565b6000615ed8604083615010565b9150615ee382615e7c565b604082019050919050565b60006020820190508181036000830152615f0781615ecb565b905091905056fea2646970667358221220649bc7674c9f20250097a1fbddda562fe5136a90b4aed5962c3d841b2d6bb56264736f6c63430008120033536d61727420436f6e7472616374204465706c6f796564205375636365737366756c6c79",
  "linkReferences": {},
  "deployedLinkReferences": {}
}